:1005C000626931696269316900323030392E303602
:0A05D0002E3236006572726F720061
:10059B00E4F5161516E516600B7BFF7A0579C0128C
:1005AB00026980EF1516E51660E67BFF7A0579C9BF
:0505BB0012026980EF4F
:0F0603006572726F72002A2A2A2A2A2A2A2A006E
:060269008B178A188919A9
:10026F001205F190000A74FEF0E4A3F0F51AC3E54D
:10027F001A9408748094804003020461AB177E00C7
:10028F00E519251AF9EE3518FA90000BE029F9EE69
:10029F003AFA1200F912017503772A04042D031D8F
:1002AF0030032631032F32033833034134034A35E9
:1002BF00035336035C37036538036E39037A410302
:1002CF008542039043039A4403A44503AE4603B803
:1002DF004803CA4C03D24E03E64F03F05003FA52C1
:1002EF0003DC55037C61038762039263039C640301
:1002FF00A66503B06603BA6803C26903D46E03E848
:10030F006F03F27003FC7203DE7500000377900039
:10031F0009743FF00204119000097406F0020411F1
:10032F00900009745BF0020411900009744FF00201
:10033F0004119000097466F0020411900009746DA5
:10034F00F0020411900009747DF00204119000096D
:10035F007407F0020411900009747FF002041190E9
:10036F000009746FF002041102040C800090000960
:10037F007477F00204118000900009747CF002047D
:10038F001180009000097439F08077800090000987
:10039F00745EF0806D80009000097479F080638046
:1003AF00009000097471F0805980009000097476F4
:1003BF00F0804F9000097404F08047900009743862
:1003CF00F0803F80009000097437F08035800090F6
:1003DF000009743EF0802B8000900009745CF0805F
:1003EF002180009000097473F0801780009000093D
:1003FF007450F0800D9000097440F08005E4900077
:10040F0009F0AB177E00E519251AF9EE3518FA90A9
:10041F00000BE029F9EE3AFA900001120112B42E06
:10042F000D900009E02480F090000BE004F09000A4
:10043F0009E0FFA3E0FD1205DA1205F190000AE0D2
:10044F00FF780108800123D8FD90000AF0051A02F9
:02045F00027D1C
:010461002278
:080462008F0B8E0A8D098C0836
:10046A0078007C007D017BFF7A0679097E007F098E
:10047A001200D3750E01750F00751007850B1485D0
:10048A000A138509128508117FFF7EE07DF57C0538
:10049A00AB14AA13A912A811D312015F50107F81BD
:1004AA007E697D677CFFA811C312015F50097BFF3B
:1004BA007A067903020553AF14AE13AD12AC11ECF0
:1004CA0033500E750D011201518F148E138D128C3B
:0F04DA0011E4F50CC3E50C940874809480505322
:1004E900E47B0AFAF9F8AF14AE13AD12AC11120598
:1004F90057AF038F1574302515F515AB0EAA0FA943
:100509001012013F74FF2510F51074FF350FF50F18
:10051900AF14AE13AD12AC11E47B0AFAF9F8120567
:0F052900578F148E138D128C11EC4D4E4F6004B2
:10053800050C80A2E50D6401700BAB0EAA0FA91083
:0E054800742D12013F7B017A007900120269C6
:010556002282
:1005F100E4F580D2A6C2A612061E7580FFD2A7C25C
:02060100A7222E
:08061E007F027E02DEFEDFFC1C
:0106260022B1
:1005DA008F80D2A6C2A68D80D2A7C2A712061E7588
:0705EA0080FFD2A7C2A72287
:03000000020612E3
:0C061200787FE4F6D8FD75811A02059B84
:10000300E709F608DFFA8046E709F208DFFA803EDF
:1000130088828C83E709F0A3DFFA8032E309F608CC
:10002300DFFA8078E309F208DFFA807088828C8334
:10003300E309F0A3DFFA806489828A83E0A3F608E8
:10004300DFFA805889828A83E0A3F208DFFA804CC2
:1000530080D280FA80C680D4806980F28033801099
:1000630080A680EA809A80A880DA80E280CA803302
:1000730089828A83ECFAE493A3C8C582C8CCC5837A
:10008300CCF0A3C8C582C8CCC583CCDFE9DEE7804A
:100093000D89828A83E493A3F608DFF9ECFAA9F0C9
:1000A300EDFB2289828A83ECFAE0A3C8C582C8CC1F
:1000B300C583CCF0A3C8C582C8CCC583CCDFEADE38
:1000C300E880DB89828A83E493A3F208DFF980CC9A
:1000D30088F0EF60010E4E60C388F0ED2402B40493
:1000E3000050B9F582EB2402B4040050AF2323453A
:0600F3008223900053730C
:1000F900BB010689828A83E0225002E722BBFE0205
:09010900E32289828A83E4932237
:10011200BB010CE58229F582E5833AF583E02250A2
:1001220006E92582F8E622BBFE06E92582F8E222EC
:0D013200E58229F582E5833AF583E4932206
:10013F00BB010689828A83F0225002F722BBFE019F
:02014F00F32299
:10055700C2D5E830E70FB2D5E4C39BFBE49AFAE4CF
:1005670099F9E498F8EC30E717B2D512058D120126
:10057700D7E4C39BFBE49AFAE499F9E498F880037B
:100587001201D730D50DE4C39FFFE49EFEE49DFD25
:04059700E49CFC22C2
:0E015100C3E49FFFE49EFEE49DFDE49CFC22BF
:10015F00EB9FF5F0EA9E42F0E99D42F0EC6480C817
:06016F0064809845F022B7
:10017500D083D082F8E4937012740193700DA3A319
:1001850093F8740193F5828883E47374029368602D
:06019500EFA3A3A380DF2D
:10019B0075F008758200EF2FFFEE33FECD33CDCC1B
:1001AB0033CCC58233C5829BED9AEC99E58298409E
:1001BB000CF582EE9BFEED9AFDEC99FC0FD5F0D67B
:1001CB00E4CEFBE4CDFAE4CCF9A88222B800C1B9A5
:1001DB000059BA002DEC8BF084CFCECDFCE5F0CBE3
:1001EB00F97818EF2FFFEE33FEED33FDEC33FCEB1C
:1001FB0033FB10D703994004EB99FB0FD8E5E4F9D7
:10020B00FA227818EF2FFFEE33FEED33FDEC33FCC3
:10021B00C933C910D7059BE99A4007EC9BFCE99AB7
:10022B00F90FD8E0E4C9FAE4CCFB2275F010EF2FFC
:10023B00FFEE33FEED33FDCC33CCC833C810D707FC
:10024B009BEC9AE899400AED9BFDEC9AFCE899F837
:0E025B000FD5F0DAE4CDFBE4CCFAE4C8F922CA
:00000001FF
