:0605D9006572726F7200F2
:0E05B6007F827E0C7D007C0012044A020269E6
:0F05A7006572726F72002A2A2A2A2A2A2A2A00CB
:060269008B088A09890AD6
:10026F0012059590000174FEF0E4A3F0F50BC3E5C1
:10027F000B9408748094804003020449AB087E00FD
:10028F00E50A250BF9EE3509FA900002E029F9EE9F
:10029F003AFA1200F912017503712A03EC2D0317B4
:1002AF0030032031032932033233033B3403443507
:1002BF00034D36035637035F380368390374410320
:1002CF007E42038843039244039C4503A64603B032
:1002DF004803BA4E03CE4F03D85003E25203C4551E
:1002EF00037661038062038A63039464039E65034C
:1002FF00A86603B26803BC6E03D06F03DA7003E421
:10030F007203C67500000371900000743FF0020382
:10031F00F99000007406F00203F9900000745BF08E
:10032F000203F9900000744FF00203F9900000747B
:10033F0066F00203F9900000746DF00203F990006B
:10034F0000747DF00203F99000007407F00203F9C6
:10035F00900000747FF00203F9900000746FF002B8
:10036F0003F90203F480009000007477F0807B8023
:10037F0000900000747CF080718000900000743950
:10038F00F080678000900000745EF0805D800090C8
:10039F0000007479F0805380009000007471F08039
:1003AF004980009000007476F0803F80009000003C
:1003BF007437F080358000900000743EF0802B8001
:1003CF0000900000745CF080218000900000747336
:1003DF00F0801780009000007450F0800D900000A6
:1003EF007440F08005E4900000F0AB087E00E50A51
:1003FF00250BF9EE3509FA900002E029F9EE3AFAE9
:10040F00900001120112B42E0D900000E02480F034
:10041F00900002E004F0900000E0FFA3E0FD120561
:10042F007E120595900001E0FF780108800123D826
:0A043F00FD900001F0050B02027DA4
:010449002290
:08044A008F0B8E0A8D098C084E
:1004520078007C007D017BFF7A0579AD7E007F0903
:100462001200D3750E01750F00751007850B1485E8
:100472000A138509128508117FFF7EE07DF57C0550
:10048200AB14AA13A912A811D312015F50107F81D5
:100492007E697D677CFFA811C312015F50077BFF55
:1004A2007A0579A722AF14AE13AD12AC11EC33501A
:1004B2000E750D011201518F148E138D128C11E4E1
:0D04C200F50CC3E50C940874809480505331
:1004CF00E47B0AFAF9F8AF14AE13AD12AC111205B2
:1004DF003AAF038F1574302515F515AB0EAA0FA97A
:1004EF001012013F74FF2510F51074FF350FF50F33
:1004FF00AF14AE13AD12AC11E47B0AFAF9F8120582
:0F050F003A8F148E138D128C11EC4D4E4F6004E9
:10051E00050C80A2E50D6401700BAB0EAA0FA9109D
:0B052E00742D12013F7B017A00790060
:01053900229F
:10059500E4F580D2A6C2A61205D07580FFD2A7C207
:0205A500A7228B
:0805D0007F027E02DEFEDFFC6B
:0105D8002200
:10057E008F80D2A6C2A68D80D2A7C2A71205D07533
:07058E0080FFD2A7C2A722E3
:030000000205C432
:0C05C400787FE4F6D8FD7581150205B6BD
:10000300E709F608DFFA8046E709F208DFFA803EDF
:1000130088828C83E709F0A3DFFA8032E309F608CC
:10002300DFFA8078E309F208DFFA807088828C8334
:10003300E309F0A3DFFA806489828A83E0A3F608E8
:10004300DFFA805889828A83E0A3F208DFFA804CC2
:1000530080D280FA80C680D4806980F28033801099
:1000630080A680EA809A80A880DA80E280CA803302
:1000730089828A83ECFAE493A3C8C582C8CCC5837A
:10008300CCF0A3C8C582C8CCC583CCDFE9DEE7804A
:100093000D89828A83E493A3F608DFF9ECFAA9F0C9
:1000A300EDFB2289828A83ECFAE0A3C8C582C8CC1F
:1000B300C583CCF0A3C8C582C8CCC583CCDFEADE38
:1000C300E880DB89828A83E493A3F208DFF980CC9A
:1000D30088F0EF60010E4E60C388F0ED2402B40493
:1000E3000050B9F582EB2402B4040050AF2323453A
:0600F3008223900053730C
:1000F900BB010689828A83E0225002E722BBFE0205
:09010900E32289828A83E4932237
:10011200BB010CE58229F582E5833AF583E02250A2
:1001220006E92582F8E622BBFE06E92582F8E222EC
:0D013200E58229F582E5833AF583E4932206
:10013F00BB010689828A83F0225002F722BBFE019F
:02014F00F32299
:10053A00C2D5E830E70FB2D5E4C39BFBE49AFAE4EC
:10054A0099F9E498F8EC30E717B2D5120570120160
:10055A00D7E4C39BFBE49AFAE499F9E498F8800398
:10056A001201D730D50DE4C39FFFE49EFEE49DFD42
:04057A00E49CFC22DF
:0E015100C3E49FFFE49EFEE49DFDE49CFC22BF
:10015F00EB9FF5F0EA9E42F0E99D42F0EC6480C817
:06016F0064809845F022B7
:10017500D083D082F8E4937012740193700DA3A319
:1001850093F8740193F5828883E47374029368602D
:06019500EFA3A3A380DF2D
:10019B0075F008758200EF2FFFEE33FECD33CDCC1B
:1001AB0033CCC58233C5829BED9AEC99E58298409E
:1001BB000CF582EE9BFEED9AFDEC99FC0FD5F0D67B
:1001CB00E4CEFBE4CDFAE4CCF9A88222B800C1B9A5
:1001DB000059BA002DEC8BF084CFCECDFCE5F0CBE3
:1001EB00F97818EF2FFFEE33FEED33FDEC33FCEB1C
:1001FB0033FB10D703994004EB99FB0FD8E5E4F9D7
:10020B00FA227818EF2FFFEE33FEED33FDEC33FCC3
:10021B00C933C910D7059BE99A4007EC9BFCE99AB7
:10022B00F90FD8E0E4C9FAE4CCFB2275F010EF2FFC
:10023B00FFEE33FEED33FDCC33CCC833C810D707FC
:10024B009BEC9AE899400AED9BFDEC9AFCE899F837
:0E025B000FD5F0DAE4CDFBE4CCFAE4C8F922CA
:00000001FF
